:020000040800F2
:10000000705D0024B1020008CD4500089B3E000849
:10001000C94500086F0C00081D75000800000000AD
:100020000000000000000000000000002F66000833
:10003000E50D000800000000CF4500089D6700089E
:10004000CB020008CB020008CB020008CB0200085C
:10005000CB020008CB020008CB020008CB0200084C
:10006000CB020008CB020008CB020008CB0200083C
:10007000CB020008CB020008CB020008CB0200082C
:10008000CB020008CB020008CB020008CB0200081C
:10009000CB020008CB020008CB020008CB0200080C
:1000A000CB020008CB020008CB020008CB020008FC
:1000B000CB020008CB020008CB020008CB020008EC
:1000C000CB020008CB020008CB020008CB020008DC
:1000D000CB020008CB020008CB020008CB020008CC
:1000E0008D0F0008CB02000800000000CB020008C2
:1000F000CB020008CB020008CB020008CB020008AC
:10010000CB020008CB020008CB020008CB0200089B
:10011000CB020008CB020008CB020008CB0200088B
:10012000CB020008CB020008CB020008CB0200087B
:10013000CB020008CB020008CB020008CB0200086B
:10014000CB020008CB020008000000000000000005
:10015000CB020008CB020008CB020008CB0200084B
:10016000CB020008CB020008CB020008CB0200083B
:10017000CB020008CB020008CB0200080000000000
:10018000CB020008CB020008CB020008CB0200081B
:10019000CB020008CB020008CB020008CB0200080B
:1001A000CB020008CB020008CB020008CB020008FB
:1001B000CB020008CB020008CB020008CB020008EB
:1001C000CB020008CB020008CB020008CB020008DB
:1001D000CB020008CB020008CB020008CB020008CB
:1001E000CB020008CB020008CB020008CB020008BB
:1001F000CB020008CB020008CB020008CB020008AB
:10020000CB020008CB020008CB020008CB0200089A
:10021000CB020008CB020008CB020008CB0200088A
:10022000CB020008CB020008CB020008000000004F
:10023000CB020008CB020008CB020008CB0200086A
:10024000CB020008CB020008CB020008CB0200085A
:10025000CB020008CB020008CB020008CB0200084A
:10026000CB020008CB020008CB020008CB0200083A
:10027000CB020008CB020008CB020008CB0200082A
:10028000CB020008CB020008CB02000800000000EF
:10029000CB020008CB020008DFF810D000F030F8E5
:1002A00000480047F19A0008AFF30080705D002419
:1002B0000648804706480047FEE7FEE7FEE7FEE700
:1002C000FEE7FEE7FEE7FEE7FEE7FEE7DD68000883
:1002D0009902000830B50B46014600202022012477
:1002E00009E021FA02F59D4205D303FA02F5491B04
:1002F00004FA02F52844151EA2F10102F1DC30BD1A
:10030000064C074D06E0E06840F0010394E8070062
:1003100098471034AC42F6D3FFF7C2FFCCE4000894
:10032000ECE400082DE9F04104460D4616461F4650
:100330004FF0000814B16FF0010814E00B4800689A
:10034000806A70B1094800683B4632462946D0F8B9
:1003500028C007480068E047002804DA6FF0040866
:1003600001E06FF00A084046BDE8F0810400002477
:10037000000000242DE9F84304460D4616461F46AA
:10038000DDF820804FF0000914B16FF0010916E08C
:100390000C480068006B80B10A48CDF80080006806
:1003A0003B4632462946D0F830C007480068E0474F
:1003B000002804DA6FF0040901E06FF00A094846EA
:1003C000BDE8F88304000024000000242DE9F84370
:1003D00004460D4616461F46DDF820804FF0000902
:1003E00014B16FF0010916E00C480068406B80B151
:1003F0000A48CDF8008000683B4632462946D0F8CE
:1004000034C007480068E047002804DA6FF00409A8
:1004100001E06FF00A094846BDE8F88304000024B3
:10042000000000242DE9FC4704460D4616461F46F1
:10043000DDE90A894FF0000A14B16FF0010A16E0F5
:100440000C480068C06A80B10A48CDE9008900689C
:100450003B4632462946D0F82CC007480068E047A2
:10046000002804DA6FF0040A01E06FF00A0A50462F
:10047000BDE8FC8704000024000000242DE9FC47AF
:1004800004460D4616461F46DDE90A894FF0000A6C
:1004900014B16FF0010A16E00C480068806B80B15F
:1004A0000A48CDE9008900683B4632462946D0F823
:1004B00038C007480068E047002804DA6FF0040AF3
:1004C00001E06FF00A0A5046BDE8FC8704000024F2
:1004D00000000024024600200AB1801E01E0022331
:1004E0000B60704770B504460D4600260CB1B61E71
:1004F0000AE0064800682946426C054800689047B3
:10050000002801DA6FF00406304670BD04000024B4
:100510000000002470B504460D4600260CB1B61E3E
:100520000AE0064800682946826C05480068904742
:10053000002801DA6FF00406304670BD0400002484
:10054000000000247CB504460D4601212E2000F059
:100550000FF980B10121032000F026F9022144F6B1
:10056000E07000F021F94FF6FF7000F004FA01206E
:1005700000F0FAF90026032D00D814B16FF001063F
:100580002DE0284605F066FE10B16FF0060626E065
:10059000144800EB04112046FFF7A4FF10B16FF0E0
:1005A00004061CE00F4800EB0410011D2046FFF775
:1005B000B1FF10B16FF0040611E04FF0FF310948B0
:1005C00000EB04104068CDE90001064800EB041080
:1005D0000022114603682046FFF750FF06463046CA
:1005E0007CBD00002001002410B504466FF00A0015
:1005F00010BD00002DE9F04104460D4616461F4689
:100600004FF0000814B16FF0010814E00B480068C7
:10061000006C70B1094800683B4632462946D0F864
:1006200040C007480068E047002804DA6FF004087B
:1006300001E06FF00A084046BDE8F08104000024A4
:100640000000002470B5044600250CB1AD1E0AE080
:1006500004F0E0FA10B14FF0FF3504E004F0DCF9EB
:1006600008B16FF00505284670BD10B5FF227F2147
:10067000002000F023F910BD7CB504467D20042342
:1006800001AA19460090012000F0DCF89DF8040052
:1006900000069DF8051040EA01409DF8061040EA6A
:1006A00001209DF8071040EA010505EA04007CBD21
:1006B00070B504460D46202C09DBA4F12000012270
:1006C00002FA00F12A46002000F026F805E0012198
:1006D00001FA04F0294600F001F870BD38B504466F
:1006E0000D46200E8DF80000200C8DF80100200A28
:1006F0008DF80200E0B28DF8030035B104236A469C
:100700000521012000F0C6F805E004236A46062111
:10071000012000F0BFF838BD7CB504460D461646F2
:10072000200E8DF80000200C8DF80100200A8DF8B5
:100730000200E0B28DF80300280E8DF80400280CAA
:100740008DF80500280A8DF80600E8B28DF807003C
:1007500036B108236A460521012000F09BF805E028
:1007600008236A460621012000F094F87CBD0000B1
:1007700070B505460E460B48057004F006FF2EB115
:10078000FFF773FF4FF4FA7004F0EDFE7D220121B4
:10079000002000F06FF80446552C01D0002070BDF9
:1007A0000120FCE77800002438B504460D46200EF1
:1007B0008DF80000200C8DF80100200A8DF8020051
:1007C000E0B28DF803006DB1012D04D0022D10D0E0
:1007D000032D34D120E004236A460221012000F0D9
:1007E00059F82CE004236A460321012000F052F856
:1007F00025E004236A460321012000F04BF804237E
:100800006A460B21012000F045F804236A460521C1
:10081000012000F03FF812E004236A460321012082
:1008200000F038F804236A460B21012000F032F86A
:1008300004236A460621012000F02CF800BF00BF07
:1008400038BD00002DE9F84304460D4616461F4604
:10085000DDF8208045EA04293B46324649460448F3
:10086000CDF80080007804F094FEBDE8F883000025
:10087000780000247CB505460E4614460020019001
:10088000012301AA314628460094FFF7DBFF9DF8BB
:1008900004007CBD2DE9F04104460D4616461F4676
:1008A00045EA04283B46324641460348007804F0B6
:1008B0008BFEBDE8F08100007800002437B50446C7
:1008C0000D46012302AA29462046FFF7E3FF3EBD5D
:1008D00070B50025002444F6E070FFF7CDFE044615
:1008E00004F4806008B901250AE004F4006008B946
:1008F000022505E004F4804008B9032500E0002546
:10090000284670BD10B500F0B7FD10BD70B50025CC
:10091000002444F6E070FFF7AFFE044604F0200028
:1009200008B9052514E004F4007008B904250FE0A7
:1009300004F0800008B901250AE004F4807008B9C9
:10094000022505E004F0400008B9032500E0002579
:10095000284670BD10B500212E20FFF709FF08B909
:10096000012010BD0020FCE710B5044621460320FD
:10097000FFF79EFE10BD38B50446002000902012FF
:100980008DF80100E0B28DF8020003236A460121D0
:100990000820FFF77FFF38BD30B587B0044600253B
:1009A0002CB1012C03D0022C01D0AD1E45E06CB956
:1009B00000BF2348006840F0020021490860084653
:1009C000006800F00200019000BF1DE0012C0DD175
:1009D00000BF1B48006840F0100019490860084635
:1009E000006800F01000019000BF0DE000BF144847
:1009F000006840F00200124908600846006800F0F4
:100A00000200019000BF00BF0E4830F814000290B1
:100A10000120039000200490032005900A4951F81A
:100A2000240002A900F002FC064A32F81410064A1B
:100A300052F82400002200F007FD284607B030BD20
:100A4000E044025844A300088800002470B504461E
:100A500000252CB1012C03D0022C01D0AD1E08E0E2
:100A6000054A32F81410054A52F82400002200F01A
:100A7000EBFC284670BD000044A300088800002459
:100A800070B5044600252CB1012C03D0022C01D0F6
:100A9000AD1E08E0054A32F81410054A52F8240049
:100AA000012200F0D1FC284670BD000044A30008DC
:100AB0008800002470B5044600252CB1012C03D019
:100AC000022C01D0AD1E07E0044A32F81410044A8B
:100AD00052F8240000F0AEFC284670BD44A3000884
:100AE0008800002406490978022903D10021044A1C
:100AF000117004E002490978491C014A11707047DD
:100B0000C800002410B50446024901EBC40000F0FF
:100B100093FA10BD7C00002430B587B004460D4622
:100B200000BF2448006840F00400224908600846DD
:100B3000006800F00400019000BF00BF1E4830F8BC
:100B40001400029002200490059045B90020039003
:100B50001A4951F8240002A900F068FB26E0184861
:100B60000390164951F8240002A900F05FFB154AD2
:100B700052F82410144A02EBC40000F055FA13494D
:100B800051F82420104901EBC400002100F07AFA4A
:100B90000F4A52F824100F4A32F91400002200F0D4
:100BA000BEFF0C4931F9140000F0A5FF002007B08A
:100BB00030BD0000E04402584AA30008940000241D
:100BC0000000111150A300087C0000249C000024A8
:100BD000A00000244CA3000870B50C4802F0AAFC49
:100BE00088B90A4804F0BAFD01F076FF05460849C5
:100BF00004F092FD04462146044803F0B3FC10B112
:100C00006FF0070070BD0020FCE700004C3C0024A2
:100C100020BCBE0070B504460D460026AAB24FF4B3
:100C20007A732146034802F0C2FD08B16FF007064F
:100C3000304670BD4C3C0024F8B504460D461646BF
:100C400000274FF47A70B3B22A4621460090044838
:100C500002F008FF08B16FF007073846F8BD000042
:100C60004C3C002410B50020FFF73CFF10BD00BF36
:100C7000FEE7000010B500BF4848006800F40030EF
:100C800000B139E000BF00BF00BFBFF34F8F00BF0E
:100C900000BF00BF00BF00BF00BFBFF36F8F00BF2A
:100CA00000BF00BF00203E49086000BF00BF00BF7A
:100CB000BFF34F8F00BF00BF00BF00BF00BF00BF2A
:100CC000BFF36F8F00BF00BF00BF3448006840F41F
:100CD00000303249086000BF00BF00BFBFF34F8F34
:100CE00000BF00BF00BF00BF00BF00BFBFF36F8FDA
:100CF00000BF00BF00BF00BF00BF284B1B6803F44C
:100D0000803303B148E00023244C7034236000BFDB
:100D100000BF00BFBFF34F8F00BF00BF00BF231F46
:100D20001868C0F34E3100BFC0F3C90200BF43F6DC
:100D3000E07303EA41134FF0404404EA8274234312
:100D4000174C1034236000BF00BF131EA2F1010234
:100D5000EDD10B1EA1F10101E6D100BF00BF00BF24
:100D6000BFF34F8F00BF00BF00BF0C4B1B6843F4A5
:100D700080330A4C236000BF00BF00BFBFF34F8F1A
:100D800000BF00BF00BF00BF00BF00BFBFF36F8F39
:100D900000BF00BF00BF00BF10BD000014ED00E0A9
:100DA00050EF00E010B501229103034800F04CFB26
:100DB000012000F025F910BD001002580748006816
:100DC00040F08070054908600020054948600846E9
:100DD000006840F00100086070470000FCED00E092
:100DE000001000E0704700002DE9F74FA6B00F4655
:100DF00091464FF0000800246348C068624901EB47
:100E000040108068C08825900846C06801EB4010FB
:100E100080688588E81DC008C5EBC00A00BFACE04B
:100E2000E81DC00800FB0896E81DC008012804D092
:100E3000022805D0032808D108E096F800B00EE09B
:100E40007078317840EA012B09E000BF3078000467
:100E5000717840EA0120B17840EA010B00BF00BF81
:100E60004948C068484901EB4010C069022858D180
:100E700000244AE0281B5044401E012101FA00F0E2
:100E800000EA0B0000B34048C0683F4901EB401046
:100E90000088C0F3072081083B48C0683A4A02EB4B
:100EA00040100078C0F3C40061F35F101146C968B8
:100EB00002EB41110968C1F30741C90840EAC120AA
:100EC00019A921F814001FE02F48C0682E4901EB32
:100ED00040108088C0F3072081082B48C0682A4A48
:100EE00002EB40100079C0F3C40061F35F101146BB
:100EF000C96802EB41114968C1F30741C90840EADA
:100F0000C12019A921F81400641CAC42B2D30120FD
:100F100039467F1C2B4619AA0090269806F05EFAE7
:100F200029E000241CE0281B5044401E012101FA46
:100F300000F000EA0B0048B11348C068124901EB09
:100F40004010006801A941F8240008E00E48C0687C
:100F50000D4901EB4010406801A941F82400641CD0
:100F6000AC42E0D3012039467F1C2B4601AA0090F9
:100F7000269806F033FA08F1010825988045FFF419
:100F80004FAF29B0BDE8F08F003D002410B5002020
:100F9000FFF7B8FD10BD00BFFEE730B504460D46B3
:100FA00000222946204600F001F830BDF0B5034686
:100FB000012500241148407A01281CDA00200F4E38
:100FC000767A0E4FB8553846467A001D40F82630DE
:100FD000001F467A083082553E46707A461C7E7263
:100FE000044604F1300008703A2048702F208870C1
:100FF0000020C87000252846F0BD0000F43C002405
:1010000070B5044600F038FA06462546681C10B153
:1010100004480078054400BF00F02EFA801BA84267
:10102000FAD370BDB400002402460AB9012070470B
:1010300011600020FBE700002DE9F0410446206824
:10104000C0F30148207800F01F01012000FA01F7E9
:1010500000F000FA032803D1094800EB081503E06B
:101060000748403000EB0815286800EA070626B15B
:101070002F60606808B160688047BDE8F0810000BB
:101080008800005810B5034600240BB9012010BD9C
:1010900009B95A6001E0012400BF00BF2046F6E70D
:1010A0000348006840F001000149086070470000F3
:1010B00020040058F0B50C460021504B98E0012662
:1010C0008E4006EA0402002A7ED04D4E8F0856F864
:1010D00027508E07370F0F26BE403540494EB0428D
:1010E00001D100262DE0484EB04201D1012628E072
:1010F000464EB04201D1022623E0454EB04201D116
:1011000003261EE0434EB04201D1042619E0424EB0
:10111000B04201D1052614E0404EB04201D106266E
:101120000FE03F4EB04201D107260AE03D4EB042EB
:1011300001D1082605E03C4EB04201D1092600E06D
:101140000A268F073F0FBE40AE421FD11E6896434E
:101150001E605E6896435E604FF0B0463668964308
:101160004FF0B0473E603E46766896437E608E07FD
:10117000370F0F2606FA07F5214E8F0856F827601D
:10118000AE431F4F4FEA910C47F82C6006684FEAB8
:10119000410C032707FA0CF73E430660CF0800F125
:1011A000200656F827604F074FEAD76C0F2707FA3B
:1011B0000CF7BE434FEAD10C00F1200747F82C6032
:1011C000C6684FEA410C00E011E0032707FA0CF76C
:1011D000BE43C660476801268E40B74347608668B5
:1011E0004FEA410C032707FA0CF7BE438660491CFF
:1011F00024FA01F6002E7FF462AFF0BD80000058A3
:101200000804005800000258000402580008025860
:10121000000C02580010025800140258001802581E
:10122000001C02580020025800240258F8B502465B
:101230000023734DDEE001279F400E6806EA070495
:10124000002C71D04E68012E08D04E68022E05D0B9
:101250004E68112E02D04E68122E13D190685F0096
:101260000326BE40B0435F00CE68BE40304390606E
:10127000506801269E40B0430E79C6F300169E408A
:1012800030435060D0685F000326BE40B0435F002B
:101290008E68BE403043D0604E68022E02D04E6849
:1012A000122E13D1DF0802F1200656F827005E0740
:1012B000F70E0F26BE40B0435F07FF0E0E69BE401B
:1012C0003043DF0802F1200646F8270010685F006F
:1012D0000326BE40B0430E7906F003065F00BE4011
:1012E000304310604E6806F08056B6F1805F1BD127
:1012F00000BF444E366846F00206424F3E603E460E
:10130000366806F00206009600BF00BF3E4E9F08FA
:1013100056F827009E07370F0F26BE40B0433B4EBE
:10132000B24202D100262EE063E0394EB24201D132
:10133000012628E0374EB24201D1022623E0364E84
:10134000B24201D103261EE0344EB24201D104263E
:1013500019E0334EB24201D1052614E0314EB242BB
:1013600001D106260FE0304EB24201D107260AE035
:101370002E4EB24201D1082605E02D4EB24201D1D7
:10138000092600E00A269F073F0FBE4030431E4E4D
:101390009F0846F827002868A0434E6806F4803668
:1013A000B6F5803F00D1204328606868A0434E68AE
:1013B00006F40036B6F5003F00D1204368604FF0D8
:1013C000B0463068A0434E6806F48016B6F5801F1C
:1013D00000D120434FF0B04630607068A0434E68A3
:1013E00006F40016B6F5001F00D120434FF0B046BA
:1013F00070605B1C0E68DE40002E7FF41CAFF8BDF1
:1014000080000058F44402580804005800000258B4
:101410000004025800080258000C0258001002583C
:101420000014025800180258001C025800200258EC
:101430000024025810B5426921EA020302EA0104BD
:1014400043EA0443836110BD0AB1816101E00B04EA
:101450008361704704480068C0F30310072801D176
:10146000032070470120FCE700ED00E00148006820
:10147000000C70470010005C0148006870470000D5
:10148000AC0000240146054850F82100044A90426F
:1014900001D1002070470120FCE700008064025861
:1014A0000003008010B541F44072034C04EB80034C
:1014B000C3F8002410BD00000060025810B50446B7
:1014C0000CB9012010BD242084F841002068006878
:1014D00020F0010021680860204600F0A1FA0020F9
:1014E000606484F84100206384F8420000BF84F8FF
:1014F000400000BF00BFE5E7014691F8410070479A
:1015000010B504460CB9012010BD94F8410028B96B
:10151000002084F84000204600F083FA242084F85C
:1015200041002068006820F00100216808606068C0
:1015300020F07060216808612068806820F4004015
:1015400021688860E068012805D1A06840F4004067
:101550002168886004E0A06840F404402168886045
:10156000E068022802D18002216848602068406853
:1015700013490843216848602068C06820F400408F
:101580002168C860D4E904010843A16940EA012048
:101590002168C860D4E90701084321680860206811
:1015A000006840F00100216808600020606420208D
:1015B00084F841000020206384F8420000BFA3E7C4
:1015C000008000022DE9F8430446894616461F466E
:1015D000DDF8208094F84100202873D100BF94F8F2
:1015E0004000012802D10220BDE8F883012084F8E0
:1015F000400000BFFFF740FF054619230122D10339
:101600002046009502F0E6FD08B10120ECE722201B
:1016100084F84100102084F8420000206064666273
:1016200067856063608DFF280CD9FF2020853C48CA
:10163000009094F828204FF080734946204602F02D
:10164000AFFD0BE0608D20853548009094F8282090
:101650004FF000734946204602F0A2FD3FE02A46C3
:101660004146204602F0E6FD08B10120BCE72068B3
:10167000406A616A0870606A401C6062208D401E8A
:101680002085608D401E6085608D40B3208D30BB0D
:101690004346002280212046009502F09BFD08B1C0
:1016A0000120A1E7608DFF280DD9FF2020850020B3
:1016B000009094F828204FF080734946204602F0AD
:1016C0006FFD0CE02AE0608D20850020009094F8EA
:1016D00028204FF000734946204602F061FD608DDE
:1016E0000028BCD12A464146204602F0F3FD08B14D
:1016F000012079E720202168C861206840680949F5
:10170000084021684860202084F84100002084F8C7
:10171000420000BF84F8400000BF65E7022063E795
:101720000024008000E800FE2DE9F84304468946C5
:1017300016461F46DDF8208094F84100202871D11C
:1017400000BF94F84000012802D10220BDE8F883D0
:10175000012084F8400000BFFFF78EFE05461923E4
:101760000122D1032046009502F034FD08B101208A
:10177000ECE7212084F84100102084F8420000208A
:101780006064666267856063608DFF280BD9FF2007
:1017900020853B48009094F82820C3024946204603
:1017A00002F0FEFC0AE0608D20853548009094F838
:1017B000282003034946204602F0F2FC3FE02A4677
:1017C0004146204602F0B1FD08B10120BEE7606A43
:1017D000007821688862606A401C6062608D401EEB
:1017E0006085208D401E2085608D40B3208D30BBEC
:1017F0004346002280212046009502F0EBFC08B110
:101800000120A3E7608DFF280DD9FF20208500204F
:10181000009094F828204FF080734946204602F04B
:10182000BFFC0CE02AE0608D20850020009094F839
:1018300028204FF000734946204602F0B1FC608D2D
:101840000028BCD12A464146204602F043FD08B19B
:1018500001207BE720202168C86120684068094991
:10186000084021684860202084F84100002084F866
:10187000420000BF84F8400000BF67E7022065E730
:101880000020008000E800FE2DE9FC5F0446894648
:1018900092469B46DDE90C780E9E94F84100202884
:1018A0007DD117B1B8F1000F05D14FF4007060641D
:1018B0000120BDE8FC9F00BF94F84000012801D141
:1018C0000220F6E7012084F8400000BFFFF7D4FDB6
:1018D000054619230122D1032046009502F07AFC27
:1018E00008B10120E5E7212084F84100402084F878
:1018F0004200002060646762A4F82A8060635B464F
:10190000524649462046CDE9006502F00BFC30B155
:1019100000BF002084F8400000BF0120C9E7608DAF
:10192000FF280CD9FF2020850020009094F8282063
:101930004FF080734946204602F032FC0BE0608D88
:1019400020850020009094F828204FF0007349462D
:10195000204602F025FC00BF2A463146204602F010
:10196000E4FC08B10120A4E7606A0078216888627D
:10197000606A401C6062608D401E6085208D401E44
:101980002085608D40B3208D30BB334600228021FE
:101990002046009502F01EFC10B1012089E73AE0D4
:1019A000608DFF280CD9FF2020850020009094F83E
:1019B00028204FF080734946204602F0F1FB0BE0EF
:1019C000608D20850020009094F828204FF000734F
:1019D0004946204602F0E4FB608D0028BCD12A462F
:1019E0003146204602F076FC08B1012061E7202054
:1019F0002168C8612068406808490840216848603B
:101A0000202084F84100002084F8420000BF84F8C0
:101A1000400000BF4DE702204BE7000000E800FE59
:101A20007047704703480068034909780844014932
:101A300008607047AC000024B400002410B50320F7
:101A400000F0AAF801F06EF810490968C1F303210B
:101A50000F4A515C01F01F0120FA01F40B480068A5
:101A600000F00F001146085C00F01F0024FA00F09F
:101A700008490860084804600F2000F00FF808B11A
:101A8000012010BD00F036F80020FAE71844025893
:101A900054A30008A8000024A400002470B5044644
:101AA0001148007808B9012070BD0F4800784FF444
:101AB0007A71B1FBF0F00D490968B1FBF0F52846E9
:101AC00002F0CDF908B10120EEE7102C07D2002278
:101AD0002146501E00F023F80548046001E0012073
:101AE000E2E70020E0E70000B4000024A4000024A6
:101AF000B000002470470146084600280DDB00BFF7
:101B000000BF00F01F0301229A4043099B0003F12C
:101B1000E023C3F8002100BF00BF00BF70472DE9DC
:101B2000F05F80460D46164605F01EFD0746394615
:101B30002A46334601F00700C0F1070ABAF1040F44
:101B400002D94FF0040A01E0C0F1070AD14600F1C2
:101B5000040ABAF1070F02D24FF0000A01E0A0F127
:101B6000030AD4464FF0010A0AFA09FAAAF1010A57
:101B70000AEA020A0AFA0CFA4FF0010B0BFA0CFB04
:101B8000ABF1010B0BEA030B4AEA0B04214640467A
:101B900005F0F2FCBDE8F09F00BF00F00702064B25
:101BA00019684FF6FF031940044B0B4343EA022127
:101BB000014B196000BF70470CED00E00000FA0512
:101BC00070B504462248006800F00700062809D0D6
:101BD0001F48006800F03F00A04201D0012070BD06
:101BE0000020FCE71A48006820F03F002043184915
:101BF0000860FFF741FC054607E0FFF73DFC401B8E
:101C0000B0F57A7F01D90120E9E71148083800686A
:101C1000C0F340300028F0D01E2C05D02E2C03D06D
:101C20001D2C01D02D2C11D1FFF726FC054607E015
:101C3000FFF722FC401BB0F57A7F01D90120CEE7E7
:101C400003480068C0F300400028F1D00020C6E738
:101C50000C4802582DE9F04104460025A8462068AA
:101C600000F00060B0F1006F30D1606E48B1B0F5A7
:101C7000801F0DD0B0F5001F10D0B0F5401F15D15A
:101C800013E0F948006840F40030F74908600FE0BD
:101C90000221201D02F09CFC054609E0022104F10E
:101CA000240002F047FD054602E001E0012500BFE7
:101CB00000BF55B9EC482430006820F44010616E34
:101CC0000843E9492431086000E0A846208800F470
:101CD0008070B0F5807F2DD1606D05281AD2DFE8C5
:101CE00000F0030A10171800DF48006840F40030C5
:101CF000DD49086010E00021201D02F069FC054666
:101D00000AE0002104F1240002F014FD054603E07E
:101D100002E001E0012500BF00BF55B9D2482430E0
:101D2000006820F00700616D0843CF492431086046
:101D300000E0A846208800F40070B0F5007F33D1A1
:101D4000A06D802817D003DC40B140281CD10CE0E6
:101D5000C02817D0B0F5807F16D114E0C2480068C3
:101D600040F40030C049086010E00021201D02F05E
:101D70002FFC05460AE0002104F1240002F0DAFC01
:101D8000054603E002E001E0012500BF00BF55B9B0
:101D9000B5482430006820F4E070A16D0843B249D2
:101DA0002431086000E0A846208800F48060B0F587
:101DB000806F38D1D4F8A400B0F5800F19D004DCBE
:101DC00050B1B0F5001F1DD10DE0B0F5C00F17D018
:101DD000B0F5000F16D114E0A348006840F40030BD
:101DE000A149086010E00021201D02F0F1FB05462A
:101DF0000AE0002104F1240002F09CFC054603E007
:101E000002E001E0012500BF00BF5DB996482C301B
:101E1000006820F46000D4F8A410084392492C31E3
:101E2000086000E0A846208800F40060B0F5006F6C
:101E300038D1D4F8A800B0F1007F19D004DC50B13B
:101E4000B0F1807F1DD10DE0B0F1407F17D0B0F12F
:101E5000806F16D114E08448006840F40030824955
:101E6000086010E00021201D02F0B2FB05460AE0E8
:101E7000002104F1240002F05DFC054603E002E0CD
:101E800001E0012500BF00BF5DB977482C30006834
:101E900020F0E060D4F8A810084373492C310860A2
:101EA00000E0A846206800F00070B0F1007F27D164
:101EB000A06CA0B1102804D0202809D030280FD160
:101EC0000CE06948006840F400306749086009E0A8
:101ED0000221201D02F07CFB054603E002E001E048
:101EE000012500BF00BF55B95F482030006820F0D1
:101EF0003000A16C08435C492031086000E0A8462E
:101F0000208800F48050B0F5805F36D1E06DB0F5E8
:101F1000005F19D004DC50B1B0F5805F1DD10DE039
:101F2000B0F5405F17D0B0F5804F16D114E04E48A1
:101F3000006840F400304C49086010E00021201D8A
:101F400002F046FB05460AE0002104F1240002F0FD
:101F5000F1FB054603E002E001E0012500BF00BF00
:101F600055B941482430006820F4E040E16D084351
:101F70003D492431086000E0A846208800F4005064
:101F8000B0F5005F34D1206EB0F5403F1DD007DCC6
:101F900068B1B0F5803F0BD0B0F5003F18D10DE02F
:101FA000B0F5802F12D0B0F5A02F11D10FE011E0C5
:101FB0000121201D02F00CFB05460BE0012104F17C
:101FC000240002F0B7FB054604E003E002E001E074
:101FD000012500BF00BF55B923482430006820F414
:101FE000E020216E084320492431086000E0A84623
:101FF000208800F48040B0F5804F38D1D4F8AC0090
:10200000B0F1405F1DD007DC68B1B0F1805F0BD04C
:10201000B0F1005F18D10DE0B0F1804F12D0B0F1F7
:10202000A04F11D10FE011E00121201D02F0D0FAE4
:1020300005460BE0012104F1240002F07BFB05467C
:1020400004E003E002E001E0012500BF00BF6DB93C
:1020500005482C30006820F0E040D4F8AC1008436C
:1020600001492C31086002E02C440258A84620881F
:1020700000F40040B0F5004F26D1E06E98B1B0F109
:10208000805F03D0B0F1005F0ED106E0F948006830
:1020900040F40030F749086008E00121201D02F0FB
:1020A00097FA054602E001E0012500BF00BF55B9DF
:1020B000F0482430006820F04050E16E0843ED49BC
:1020C0002431086000E0A846206800F08070B0F17C
:1020D000807F27D1606CA0B1012804D0022809D0EC
:1020E00003280FD10CE0E348006840F40030E149D8
:1020F000086009E00221201D02F06AFA054603E0AB
:1021000002E001E0012500BF00BF55B9D9482030E9
:10211000006820F00300616C0843D6492031086054
:1021200000E0A846206800F48000B0F5800F7DD163
:10213000D148006840F48070CF490860FFF79CF9EF
:10214000064606E0FFF798F9801B642801D90325AD
:1021500005E0C948006800F480700028F2D000BF94
:1021600085BBC4484430006800F44070B4F8B01037
:1021700001F44071884213D0BE484430006820F416
:102180004077BC484430006840F48030B94944315D
:1021900008600846006820F4803008600846076040
:1021A000D4F8B000B0F5807F15D1FFF765F9064689
:1021B00009E0FFF761F9801B41F28831884202D9BA
:1021C000032507E038E0AB4844300068C0F3400026
:1021D0000028EED000BF55BB00BFB4F8B00000F43B
:1021E0004070B0F5407F0ED1A2481C38006820F442
:1021F0007C51A24AD4F8B000104041EA10109D4929
:102200001C39086007E09B481C38006820F47C50AB
:1022100098491C390860974844300068B4F8B010F9
:10222000C1F30B0108439349443101E005E001E0AB
:10223000086002E0A84600E0A846207800F001000F
:1022400068B3A06F182819D005DC48B1082808D059
:10225000102816D10BE0202811D0282811D10FE02A
:1022600011E00121201D02F0B3F905460BE0012128
:1022700004F1240002F05EFA054604E003E002E007
:1022800001E0012500BF00BF55B97A482830006839
:1022900020F03800A16F084376492831086000E03B
:1022A000A846207800F00200022828D1606F062896
:1022B00015D2DFE800F003040A11121311E0012126
:1022C000201D02F085F905460BE0012104F12400F0
:1022D00002F030FA054604E003E002E001E00125E7
:1022E00000BF00BF55B963482830006820F00700E0
:1022F000616F08435F492831086000E0A8462078F4
:1023000000F0040004282AD1D4F89000062815D241
:10231000DFE800F003040A11121311E00121201D6F
:1023200002F056F905460BE0012104F1240002F009
:1023300001FA054604E003E002E001E0012500BFE8
:1023400000BF5DB94B482C30006820F00700D4F87E
:102350009010084347492C31086000E0A8462078D7
:1023600000F02000202836D1D4F88C00B0F1405F76
:102370001DD007DC68B1B0F1805F0BD0B0F1005F19
:1023800018D10DE0B0F1804F12D0B0F1A04F11D1B3
:102390000FE011E00021201D02F01AF905460BE0C4
:1023A000022104F1240002F0C5F9054604E003E02F
:1023B00002E001E0012500BF00BF5DB92D482830D3
:1023C000006820F0E040D4F88C10084329492831F7
:1023D000086000E0A846207800F04000402836D190
:1023E000D4F89800B0F5406F1DD007DC68B1B0F5A7
:1023F000806F0BD0B0F5006F18D10DE0B0F5805FA5
:1024000012D0B0F5A05F11D10FE011E00021201D26
:1024100002F0DEF805460BE0022104F1240002F090
:1024200089F9054604E003E002E001E0012500BF70
:1024300000BF5DB90F482C30006820F4E050D4F89C
:10244000981008430B492C31086000E0A84620781A
:1024500000F0800080283AD1D4F89C00B0F5C04F3D
:1024600023D00DDC98B1B0F5005F11D0B0F5804FEE
:102470001ED113E02C44025800480258FFFCFF0F05
:10248000B0F5004F12D0B0F5204F11D10FE011E0A0
:102490000021201D02F09CF805460BE0022104F10A
:1024A000240002F047F9054604E003E002E001E001
:1024B000012500BF00BF4DB9BE48006820F4604050
:1024C000D4F89C100843BB49086000E0A846207877
:1024D00000F00800082817D1D4F88000B0F5805F1C
:1024E00007D1022104F1240002F024F908B14FF0D1
:1024F0000108B048001F006820F44050D4F8801054
:102500000843AC49091F0860207800F0100010282B
:1025100015D1D4F89400B0F5807F07D1022104F1E1
:10252000240002F007F908B14FF00108A148006843
:1025300020F44070D4F8941008439E490860206845
:1025400000F40020B0F5002F26D1D4F8A00030B15F
:10255000B0F5803F09D0B0F5003F0ED10CE000216E
:10256000201D02F035F8054609E0022104F124009F
:1025700002F0E0F8054602E001E0012500BF00BFDF
:102580004DB98C48006820F44030D4F8A0100843BE
:102590008849086000E0A846206800F48020B0F573
:1025A000802F2DD1D4F88400B0F5801F06D0B0F56F
:1025B000001F0CD0B0F5401F11D10FE07D482C3822
:1025C000006840F400307B492C39086009E00121A3
:1025D00004F1240002F0AEF8054602E001E0012516
:1025E00000BF00BF5DB97348001F006820F44010B1
:1025F000D4F8841008436F49091F086000E0A8461A
:10260000206800F48030B0F5803F24D1E06C18B130
:10261000B0F5803F0FD108E066482C38006840F4E0
:10262000003064492C39086007E00221201D01F0C8
:10263000CFFF054601E0012500BF00BF55B95D4849
:102640000C38006820F48030E16C084359490C399B
:10265000086000E0A846206800F00050B0F1005F7C
:1026600007D1022104F1240002F064F808B14FF010
:102670000108206800F40030B0F5003F27D1E06F7A
:10268000A0B1B0F5807F06D0B0F5007F0CD0B0F5DA
:10269000407F0CD109E047482C38006840F40030F6
:1026A00044492C39086004E003E002E001E0012520
:1026B00000BF00BF55B93F48001F006820F44070BC
:1026C000E16F08433B49091F086000E0A846206805
:1026D00000F48010B0F5801F09D136480838006832
:1026E00020F00040216F0843324908390860206813
:1026F00000F08050B0F1805F0AD12E484838006861
:1027000020F48040D4F8B41008432A4948390860BE
:10271000206800F40010B0F5001F09D125480838E2
:10272000006820F08070A16E0843224908390860D3
:10273000206800F08040B0F1804F11D100BF1D48EB
:102740004838006820F400401A49483908600846B3
:102750000068D4F8B810084316494839086000BF2B
:10276000206800F00040B0F1004F09D111480C384A
:10277000006820F04050216D08430E490C39086074
:10278000206800F40000B0F5000F0AD10948001FCE
:10279000006820F44000D4F8881008430549091F58
:1027A0000860B8F1000F02D10020BDE8F0810120DF
:1027B000FBE70000584402582DE9F04104460D465D
:1027C00014B90120BDE8F081BD48006800F00F0099
:1027D000A8420ED2BA48006820F00F002843B8493A
:1027E00008600846006800F00F00A84201D00120F0
:1027F000E8E7207800F0040004280ED1B1492069F0
:10280000096801F07001884207D9AE48006820F0DD
:10281000700021690843AB490860207800F0080087
:10282000082811D1A749091D6069096801F07001E4
:10283000884209D9A348001D006820F07000616932
:102840000843A049091D0860207800F010001028F6
:1028500011D19C49091DA069096801F4E061884211
:1028600009D99848001D006820F4E060A169084378
:102870009449091D0860207800F02000202811D11B
:1028800090490831E069096801F07001884209D96E
:102890008C480830006820F07000E16908438949DD
:1028A00008310860207800F0020002280ED1854926
:1028B000E068096801F00F01884207D98148006883
:1028C00020F00F00E16808437E490860207800F09E
:1028D0000100002850D07B48006820F47060A16897
:1028E0000843784908606068022807D1754818389D
:1028F0000068C0F34040F8B9012063E7606803282E
:1029000007D1704818380068C0F34060A0B90120B2
:1029100058E76068012807D16A4818380068C0F392
:10292000002048B901204DE7664818380068C0F318
:10293000800008B9012045E762480838006820F0A7
:102940000700616808435F4908390860FEF794FD95
:10295000064608E0FEF790FD801B41F28831884270
:1029600001D903202EE757480838006800F03800E6
:102970006168B0EBC10FEDD1207800F002000228B1
:102980000ED15049E068096801F00F01884207D272
:102990004C48006820F00F00E1680843494908608E
:1029A0004748006800F00F00A8420ED9444800686C
:1029B00020F00F002843424908600846006800F0F4
:1029C0000F00A84201D00120FCE6207800F00400AE
:1029D00004280ED13B492069096801F07001884242
:1029E00007D23848006820F0700021690843354953
:1029F0000860207800F00800082811D13149091D2D
:102A00006069096801F07001884209D22D48001DF3
:102A1000006820F07000616908432A49091D0860B8
:102A2000207800F01000102811D12649091DA06956
:102A3000096801F4E061884209D22248001D00685B
:102A400020F4E060A16908431E49091D0860207850
:102A500000F02000202811D11A490831E0690968E6
:102A600001F07001884209D216480830006820F051
:102A70007000E169084313490831086000F052F81A
:102A800010490968C1F303210F4A515C01F01F018D
:102A900020FA01F70B48006800F00F001146085CAF
:102AA00000F01F0027FA00F0084908600848076096
:102AB00008480068FEF7F2FF8046404682E60000C4
:102AC000002000521844025854A30008A800002413
:102AD000A4000024B000002410B500F023F80D4934
:102AE0000968C1F303210C4A515C01F01F0120FA6F
:102AF00001F40848006800F00F001146085C00F07F
:102B00001F0024FA00F005490860054804600846E3
:102B1000006810BD1844025854A30008A8000024FF
:102B2000A4000024F0B5824E366806F0380636B1AF
:102B3000082E15D0102E15D0182E7DD114E07C4E05
:102B4000103E3668C6F3401646B1794E103E3668E0
:102B5000C6F3C107774E26FA07F000E07548E5E0B6
:102B60007548E3E07548E1E0714E1836366806F0C6
:102B700003046F4E18363668C6F305116C4E1C36CA
:102B8000366806F001056A4E24363668C6F3CC0670
:102B900016FB05F601EE106AB8EE410A002971D065
:102BA00024B1012C50D0022C6DD16DE0604E103E4E
:102BB0003668C6F340163EB35D4E103E3668C6F327
:102BC000C1075C4E26FA07F301EE103AF8EE411AFF
:102BD00001EE101AB8EE411A81EE812A9FED581AC3
:102BE000C0EE011A524E20363668C6F3080601EED2
:102BF000106AB8EE411A31EE811AF7EE001A31EE82
:102C0000211A62EE010A1EE001EE101AB8EE411A16
:102C1000DFED4C1A81EE812A9FED491AC0EE011AB0
:102C2000434E20363668C6F3080601EE106AB8EE49
:102C3000411A31EE811A00E076E0F7EE001A31EE2B
:102C4000211A62EE010A5BE001EE101AB8EE411A99
:102C50009FED3D2AC2EE011A9FED391A80EE012A3E
:102C6000334E20363668C6F3080601EE106AB8EE19
:102C7000411A32EE011AB7EE002A31EE021A61EE65
:102C8000810A3DE04EE01DE001EE101AB8EE411A57
:102C9000DFED2E1A81EE812A9FED291AC0EE011A6E
:102CA000234E20363668C6F3080601EE106AB8EEE9
:102CB000411A31EE811AF7EE001A31EE211A62EE56
:102CC000010A1DE001EE101AB8EE411A9FED1E2A0E
:102CD000C2EE011A9FED1A1A80EE012A144E203618
:102CE0003668C6F3080601EE106AB8EE411A32EEF5
:102CF000011AB7EE002A31EE021A61EE810A00BF16
:102D000000BF0B4E20363668C6F34626721C01EE15
:102D1000102AB8EE411AC0EE811ABCEEE11A11EE8B
:102D2000100A00E0002001E0034800BF00BFF0BD32
:102D3000104402580090D00300093D0000127A00B0
:102D4000000000460024744C0024744A0024F44A15
:102D50002DE9F047044614B90120BDE8F08720783A
:102D600000F00100002870D0FE48006800F038082C
:102D7000FC481830D0F80090B8F1100F06D0B8F128
:102D8000180F0FD109F0030002280BD1F5481038B5
:102D90000068C0F3404000286AD06068002867D10E
:102DA0000120DAE700BF6068B0F5803F08D1ED4848
:102DB0001038006840F48030EA49103908602EE08D
:102DC000606868B9E7481038006820F48030E54949
:102DD000103908600846006820F4802008601EE072
:102DE0006068B0F5A02F0DD1DE481038006840F4BF
:102DF0008020DC49103908600846006840F48030C3
:102E000008600CE0D7481038006820F48030D549BD
:102E1000103908600846006820F48020086000BF70
:102E2000606898B1FEF728FB054606E0FEF724FB34
:102E3000401B642801D903208FE7CA481038006876
:102E4000C0F340400028F1D012E012E0FEF714FB7E
:102E5000054606E0FEF710FB401B642801D903205D
:102E60007BE7C04810380068C0F340400028F1D12B
:102E700000BF207800F0020002287BD1B94800682A
:102E800000F03808B7481830D0F80090B8F1000FBB
:102E900005D0B8F1180F3AD109F00300B0BBB14822
:102EA00010380068C0F3800018B1E06808B901204C
:102EB00053E700BFFEF7DAFA41F20301884219D85E
:102EC000206940280AD1A7480C38006820F47C30DB
:102ED00040F40030A3490C39086016E0A1480C38D2
:102EE000006820F47C30216940EA01309D490C39AA
:102EF00008600AE09B480C38006820F0FE40217C06
:102F000040EA016097490C39086067E0FFE7E06834
:102F100088B394481038006820F01900E16808432D
:102F2000904910390860FEF7A7FA054606E0FEF75B
:102F3000A3FA401B022801D903200EE78948103864
:102F40000068C0F380000028F1D000BFFEF78EFAC1
:102F500041F2030188421BD8206940280CD18148E6
:102F60000C38006820F47C3040F400307D490C3986
:102F7000086018E033E017E07A480C38006820F465
:102F80007C30216940EA013076490C3908600AE05A
:102F900074480C38006820F0FE40217C40EA016053
:102FA00070490C39086019E06E481038006820F04C
:102FB00001006C4910390860FEF75EFA054606E02C
:102FC000FEF75AFA401B022801D90320C5E66548DE
:102FD00010380068C0F380000028F1D100BF2078CD
:102FE00000F0100010287CD15E48006800F038081E
:102FF0005C481830D0F80090B8F1080F06D0B8F14E
:10300000180F3DD109F00300012839D15548103877
:103010000068C0F3002020B1E069802801D00120C1
:103020009BE600BFFEF722FA41F2030188421AD85C
:10303000206A20280AD14B480C38006820F0F8405C
:1030400040F0804047490C39086018E045480C388A
:10305000006820F0F84094F8201040EA816041496F
:103060000C3908600BE03F48001F006820F07C50DE
:1030700094F8201040EA01603A49091F086066E0B0
:10308000E06978B337481038006840F0800035496F
:1030900010390860FEF7F0F9054606E0FEF7ECF996
:1030A000401B022801D9032057E62E48103800683B
:1030B000C0F300200028F1D000BFFEF7D7F941F29D
:1030C000030188421CD8206A20280CD125480C38DE
:1030D000006820F0F84040F0804022490C39086038
:1030E0001AE035E019E01F480C38006820F0F8407D
:1030F00094F8201040EA81601A490C3908600BE00E
:103100001848001F006820F07C5094F8201040EA16
:1031100001601449091F086019E01248103800685E
:1031200020F080000F4910390860FEF7A5F9054628
:1031300006E0FEF7A1F9401B022801D903200CE6A6
:10314000084810380068C0F300200028F1D100BF03
:10315000207800F00800082834D16069D8B101480F
:10316000643001E010440258006840F00100EF496B
:103170000860FEF781F9054606E0FEF77DF9401B81
:10318000022801D90320E8E5E8480068C0F34000C0
:103190000028F2D016E0E548006820F00100E3497D
:1031A0000860FEF769F9054606E0FEF765F9401B81
:1031B000022801D90320D0E5DC480068C0F34000B4
:1031C0000028F2D1207800F02000202836D1A06914
:1031D000D0B1D6487438006840F48050D34974396F
:1031E0000860FEF749F9054606E0FEF745F9401B81
:1031F000022801D90320B0E5CC4874380068C0F338
:1032000040300028F1D019E0C8487438006820F434
:103210008050C64974390860FEF72EF9054606E06D
:10322000FEF72AF9401B022801D9032095E5BF4883
:1032300074380068C0F340300028F1D1207800F0E5
:10324000040004287DD1BA48006840F48070B84971
:103250000860FEF711F9054606E0FEF70DF9401B80
:10326000642801D9032078E5B148006800F4807033
:103270000028F2D000BFA068012808D1AB48001F89
:10328000006840F00100A949091F08602DE0A0680E
:1032900068B9A648001F006820F00100A349091F73
:1032A00008600846006820F0040008601DE0A0687F
:1032B00005280DD19D48001F006840F004009B497F
:1032C000091F08600846006840F0010008600CE033
:1032D0009648001F006820F001009449091F08600B
:1032E0000846006820F00400086000BFA068A0B194
:1032F000FEF7C2F8054608E0FEF7BEF8401B41F2B3
:103300008831884201D9032027E58848001F0068DA
:10331000C0F340000028EFD013E0FEF7ADF80546FB
:1033200008E0FEF7A9F8401B41F28831884201D934
:10333000032012E57D48001F0068C0F3400000280C
:10334000EFD1606A00287DD078486438006800F0CA
:103350003800182877D0606A022875D1734874380D
:10336000006820F08070714974390860FEF784F8B5
:10337000054606E0FEF780F8401B022801D903202D
:10338000EBE46A4874380068C0F340600028F1D16B
:1033900000BFD4E90A1041EA001064494C390968B9
:1033A00040F2F3329143084360494C390860208E63
:1033B000401EC0F30800616B491E4FF47E4202EAD2
:1033C00041210843218F491ED20102EA01410843ED
:1033D0003C21095D491E120202EA0161084353497A
:1033E0004439086000BF081F006820F00100091F71
:1033F00008604E48403800684FF6F8718843A16C69
:1034000040EAC100494940390860484848380068E6
:1034100020F00C00216C08434449483908600846F4
:10342000006820F00200616C084340494839086098
:103430000846006840F4803008600846006840F4A0
:10344000003002E06FE041E025E0086008460068D7
:1034500040F4802008600846006840F001000860E1
:1034600032487438006840F0807030497439086020
:10347000FEF702F8054606E0FDF7FEFF401B0228B6
:1034800001D9032069E4294874380068C0F340601A
:103490000028F1D047E025487438006820F080709B
:1034A000224974390860FDF7E7FF054606E0FDF79D
:1034B000E3FF401B022801D903204EE41B48743867
:1034C0000068C0F340600028F1D12CE017484C3868
:1034D0000768164844380668606A012821D007F05A
:1034E0000301A06A81421CD1C7F30511E06A88423A
:1034F00017D1C6F30801206B401E814211D1606BC9
:10350000401EC6F3462188420BD1A06B401EC6F375
:103510000641884205D1E06B401EC6F30661884231
:1035200001D0012019E4002017E40000744402587F
:1035300000480258014691F88100704770B5044672
:103540000CB9012070BD606A00B900BFA06AB0F577
:10355000800F00D100BF9249206888420CD0914969
:103560002068884208D090492068884204D0E068EA
:103570000F2801D90120E5E7204602F0BFF80646F2
:1035800087492068884209D086492068884205D04A
:1035900085492068884201D0082E0DD880492068CE
:1035A000884207D07F492068884203D07E4920683E
:1035B000884203D1102E01D90120C3E7A06AB0F5DB
:1035C000800F1DD17649206888420DD0754920684A
:1035D000884209D074492068884205D0206BB0F534
:1035E000702F01D90120ADE7206B10B9A089050427
:1035F00000E0256BE068B0EB154F03D90120A1E78F
:10360000A089050494F8810028B9002084F880007E
:10361000204600F0CBF8022084F881002068006882
:1036200020F0010021680860A069B0F1806F11D11D
:103630006068B0F5800F01D1A06B28B1606848B90F
:10364000A06BB0F1805F05D12068006840F4805025
:1036500021680860A16AE06908432843E16B0843D8
:10366000E168084321688860616A606B0843A16B68
:103670000843A16908432169084361690843216A35
:10368000084361680843E16C0843A1680843A16CE2
:103690000843A16D08432168C860A06AB0F5800F97
:1036A0004DD1206C012806D12068006840F400400C
:1036B0002168086005E02068006820F40040216867
:1036C0000860606C012806D12068006840F48040E2
:1036D0002168086005E02068006820F480402168C7
:1036E00008602F49206888420AD02E492068884205
:1036F00006D02D492068884202D0B5F5702F0ED033
:1037000027492068884207D026492068884203D08C
:1037100025492068884209D1B5F5F81F06D12068EF
:10372000006840F400502168086005E020680068E7
:1037300020F40050216808602168E06A086460682D
:1037400088B9A06A38B92068806820F4C05040F475
:103750000060216888602068806820F4C06040F4C0
:103760008060216888602068006D20F00100216879
:103770000865606800F48000B0F5800F07D120680C
:10378000C06820F00040616D08432168C8600020D7
:10379000C4F88400012084F881000020D2E60000F3
:1037A0000030014000380040003C004070472DE9E7
:1037B000F8430446884617461D464FF0000900BFEF
:1037C00094F88000012802D10220BDE8F88301208E
:1037D00084F8800000BFFDF74FFE064694F8810094
:1037E000012808D04FF0020900BF002084F88000B3
:1037F00000BF4846E9E7B8F1000F00D047B94FF0E5
:10380000010900BF002084F8800000BF4846DCE7C3
:1038100003205C3484F825000020A062C4F80080F6
:10382000A780E780A060A081E081A06160615C3C2E
:10383000A068B0F5C02F05D12068006840F4006092
:1038400021680860206840686FF30F0038432168E2
:1038500048602068006840F00100216808606068E6
:10386000B0F5800F05D12068006840F40070216831
:103870000860E0680F2832D92CE02068406900F029
:10388000020002280CD1E06D006821680862E06D3A
:10389000001DE065B4F86200401EA4F8620019E063
:1038A000FDF7EAFD801BA84201D3681C00B98DB961
:1038B000204601F0A5FE00BF002084F8800000BF74
:1038C000D4F8840040F48070C4F88400012084F8A7
:1038D00081007AE7B4F862000028CED1A2E0E06867
:1038E000072845D93FE02068406900F0020002281F
:1038F0001FD1B4F8620001280ED9E06B60B1E06D11
:10390000006821680862E06D001DE065B4F862009F
:10391000801EA4F8620026E0E06D0088216808841B
:10392000E06D801CE065B4F86200401EA4F86200FF
:1039300019E0FDF7A1FD801BA84201D3681C00B966
:103940008DB9204601F05CFE00BF002084F88000A5
:1039500000BFD4F8840040F48070C4F884000120D3
:1039600084F8810031E7B4F862000028BBD159E047
:1039700054E02068406900F00200022834D1B4F815
:10398000620003280FD9E06B40280CD9E06D006875
:1039900021680862E06D001DE065B4F86200001F58
:1039A000A4F862003AE0B4F8620001280ED9E06B96
:1039B00060B1E06D008821680884E06D801CE065DE
:1039C000B4F86200801EA4F8620027E0E06D007881
:1039D000216881F82000E06D401CE065B4F86200C9
:1039E000401EA4F8620019E0FDF746FD801BA842C6
:1039F00001D3681C00B98DB9204601F001FE00BF5B
:103A0000002084F8800000BFD4F8840040F4807067
:103A1000C4F88400012084F88100D6E6B4F862007E
:103A20000028A6D13346002208212046009501F047
:103A30003DFF28B1D4F8840040F02000C4F8840091
:103A4000204601F0DDFD00BF002084F8800000BFAB
:103A5000012084F88100D4F8840008B10120B4E684
:103A60004846B2E62DE9FF4F83B004468A461F461A
:103A7000109E0020029000BF94F88000012803D11E
:103A8000022007B0BDE8F08F012084F8800000BF5D
:103A9000FDF7F2FC81463D46A84694F881B0606887
:103AA0000190BBF1010F11D00198B0F5800F04D146
:103AB000A06810B9BBF1040F08D00220029000BF2B
:103AC000002084F8800000BF0298DAE7BAF1000F06
:103AD00002D0059800B147B90120029000BF002034
:103AE00084F8800000BF0298CBE794F88100042896
:103AF00002D0052084F881000020C4F884000598D5
:103B00006066A4F86A70A4F86870C4F85CA0A4F8B1
:103B10006270A4F8607000202067606720684068C9
:103B20006FF30F003843216848602068006840F058
:103B30000100216808606068B0F5800F05D1206839
:103B4000006840F4007021680860E0680F284DD9D3
:103B500046E02068406900F0020002280ED16DB1F5
:103B6000E06D006821680862E06D001DE065B4F852
:103B70006200401EA4F86200B4F8625020684069F8
:103B800048F20801084080B1B8F1000F0DD020685C
:103B9000006B616E0860606E001D6066B4F86A00BC
:103BA000401EA4F86A00B4F86A80FDF765FCA0EB3B
:103BB0000900B04201D3701C00B98EB9204601F053
:103BC0001FFD00BF002084F8800000BFD4F88400EF
:103BD00040F48070C4F88400012084F8810050E72C
:103BE000002DB6D1B8F1000FB3D117E1E068072876
:103BF00074D96CE02068406900F00200022821D1ED
:103C000005B3012D10D9E06B70B1E06D006821683B
:103C10000862E06D001DE065B4F86200801EA4F843
:103C20006200B4F862500DE0E06D008821680884FD
:103C3000E06D801CE065B4F86200401EA4F86200EC
:103C4000B4F862502068406900F4604020B3B8F1D5
:103C5000000F21D02068406900F4004070B1206856
:103C6000006B616E0860606E001D6066B4F86A00EB
:103C7000801EA4F86A00B4F86A800DE02068008E07
:103C8000616E0880606E801C6066B4F86A00401E39
:103C9000A4F86A00B4F86A80FDF7EEFBA0EB090017
:103CA000B04201D3701C00B98EB9204601F0A8FCC7
:103CB00000BF002084F8800000BFD4F8840040F4E6
:103CC0008070C4F88400012084F88100D9E6002DBA
:103CD00090D1B8F1000F8DD1A0E0FFE798E0206807
:103CE000406900F00200022836D12DB3032D11D90E
:103CF000E06B40280ED9E06D006821680862E06D35
:103D0000001DE065B4F86200001FA4F86200B4F87A
:103D1000625021E0012D10D9E06B70B1E06D008898
:103D200021680884E06D801CE065B4F86200801EA4
:103D3000A4F86200B4F862500EE0E06D00782168EB
:103D400081F82000E06D401CE065B4F86200401E80
:103D5000A4F86200B4F862502068406900F4604042
:103D600058B3B8F1000F38D02068406900F4004023
:103D700070B12068006B616E0860606E001D606647
:103D8000B4F86A00001FA4F86A00B4F86A8024E05E
:103D90002068406900F4C040B0F5005F0ED920688B
:103DA000008E616E0880606E801C6066B4F86A00E8
:103DB000801EA4F86A00B4F86A800EE0206890F8CB
:103DC0003000616E0870606E401C6066B4F86A0076
:103DD000401EA4F86A00B4F86A80FDF74DFBA0EB22
:103DE0000900B04201D3701C00B98EB9204601F021
:103DF00007FC00BF002084F8800000BFD4F88400D6
:103E000040F48070C4F88400012084F8810038E612
:103E1000002D7FF464AFB8F1000FFAD14B460022B9
:103E200008212046009601F041FD28B1D4F8840015
:103E300040F02000C4F88400204601F0E1FB00BF00
:103E4000002084F8800000BF012084F88100D4F8AD
:103E5000840008B1012014E6029812E6704770B59C
:103E600004462546681EB0F1807F01D301200FE093
:103E7000681E4FF0E02148610F214FF0FF3003F042
:103E80007BFB00204FF0E0218861072008610020C3
:103E900070BD10B5FFF7E2FF10BD00BFFEE70000E8
:103EA00010B50348FDF70AFB00F004F810BD000050
:103EB0000407002410B50D48FDF71EFBA0B90C48FF
:103EC0000A4908600B4848600021084881600121C8
:103ED000C1600021016141618161C161016200F045
:103EE0000BF80248FDF70CFB10BD0000040700248E
:103EF00000540040563EA11010B5B6B0044608204C
:103F000002900020229002A8FDF7A4FE00BF1D48E9
:103F1000006840F002001B4908600846006800F095
:103F20000200019000BF00BF4FF44070319012209A
:103F3000329000203390032034900420359031A932
:103F40001148FDF773F900BF0E480830006840F4CF
:103F500000100C49083108600846006800F40010A1
:103F6000019000BF00BF07485038006840F40010BF
:103F70000449503908600846006820F400100860C1
:103F800036B010BDE044025800040258F8B50446AB
:103F90000D46164600276006040E074800683346A3
:103FA0002A46214600900548FDF70CFB07460FB155
:103FB000FFF776FF3846F8BD980000240407002478
:103FC0002DE9FC4105460C4617464FF000086806EF
:103FD000050E022F07D120128DF80400E0B28DF8F3
:103FE0000500022603E0E0B28DF80400012609482E
:103FF0000068334601AA294600900748FDF794FB64
:104000008046B8F1000F01D0FFF74AFF4046BDE8F7
:10401000FC81000098000024040700242DE9FE43E1
:1040200004460D4616461F46DDF828904FF000085E
:104030006006040E0948006833462A462146CDE949
:10404000007902900648FDF71FFC8046B8F1000F8A
:1040500001D0FFF725FF4046BDE8FE83980000240D
:104060000407002401688969C1F3400111B10021EE
:10407000026891620168896901F0010129B901684A
:10408000896941F0010102689161704770B5044689
:104090000D46164620688069C0F3001000283DD008
:1040A00017E0681CA8B1FDF7E7F9801BA84200D80B
:1040B0007DB9606C40F020006064202084F84100ED
:1040C000002084F8420000BF84F8400000BF0120B7
:1040D00070BD20688069C0F340100028E1D0102036
:1040E0002168C86120202168C8612046FFF7BAFF17
:1040F000206840680A49084021684860606C40F0C8
:1041000004006064202084F84100002084F842000C
:1041100000BF84F8400000BF0120D9E70020D7E7A6
:1041200000E800FE2DE9F8430446894615461E4680
:10413000DDE908781948F2B2C302494600902046EA
:1041400000F02EF842463946204600F0EEF810B155
:104150000120BDE8F883012E03D1E8B2216888620E
:104160000EE0C5F3072021688862424639462046A2
:1041700000F0DBF808B10120EBE7E8B221688862C3
:104180003B46002280212046CDF8008000F022F836
:1041900008B10120DDE70020DBE7000000200080FF
:1041A000F0B5059C05686D684FF4806606EA5456C4
:1041B00066F0FC2646F4C046B543C1F309064FF449
:1041C0007F0707EA02473E431E43264335430668FE
:1041D0007560F0BD2DE9F04104460E4617461D46B8
:1041E000DDF8188019E0681CB8B1FDF745F9A0EBBF
:1041F0000800A84200D885B9606C40F020006064D7
:10420000202084F84100002084F8420000BF84F898
:10421000400000BF0120BDE8F08120688069304087
:10422000B04201D1012000E00020B842DBD00020E4
:10423000F1E7000070B504460D46164640E03246F0
:1042400029462046FFF722FF08B1012070BD2068F3
:104250008069C0F34010F8B120688069C0F3800025
:1042600018B1208D08B10020F0E720202168C86136
:104270002068406816490840216848600020606452
:10428000202084F84100002084F8420000BF84F818
:10429000400000BF0120D9E7FDF7EEF8801BA842DF
:1042A00000D86DB9606C40F020006064202084F874
:1042B000410000BF002084F8400000BF0120C5E796
:1042C00020688069C0F380000028B8D00020BDE7D6
:1042D00000E800FE70B504460D4616461DE0324665
:1042E00029462046FFF7D2FE08B1012070BDFDF738
:1042F000C3F8801BA84200D87DB9606C40F0200054
:104300006064202084F84100002084F8420000BF4F
:1043100084F8400000BF0120E8E720688069C0F30E
:1043200040100028DBD00020E0E770B504460D46C1
:1043300016461FE0324629462046FFF7A7FE08B181
:10434000012070BD681CA8B1FDF796F8801BA8423B
:1043500000D87DB9606C40F020006064202084F8B3
:104360004100002084F8420000BF84F8400000BFF4
:104370000120E6E720688069C0F340000028D9D01A
:104380000020DEE700B585B000224FF480410F48E1
:10439000FDF75AF84FF4804000900C480099FCF764
:1043A00089FE4FF40070009009480099FCF782FEE6
:1043B0000848006820F008000649086008460068C0
:1043C00020F040000860002005B000BD000C02583D
:1043D00000180258E044025810B586B0002400BF0F
:1043E0001C48006840F008001A4908600846006848
:1043F00000F00800009000BF00BF00BF0846006842
:1044000040F0400008600846006800F0400000905E
:1044100000BF00BF4FF480400190012002900020B7
:1044200003900220049001A90B48FCF7FFFE4FF413
:104430000070019001A90948FCF7F8FE01229103E0
:104440000548FDF701F8FCF7C7FB00B1641E2046E4
:1044500006B010BDE0440258000C02580018025883
:1044600070B505460C460026ACB100224FF48041E1
:104470000A48FCF7E9FF012251020948FCF7E4FF72
:1044800021462846FCF7C6FB00B1361F01229103E6
:104490000248FCF7D9FF304670BD0000000C0258FE
:1044A00000180258F7B50D46164600224FF4804119
:1044B0000E48FCF7C9FF00224FF400710C48FCF7CE
:1044C000C3FF01216846FCF7A5FB10B16FF00304A0
:1044D00009E0012291030548FCF7B6FF3146284662
:1044E000FFF7BEFF04462046FEBD0000000C025848
:1044F000001802580020FCF74FFA01210020FCF7B9
:104500000BFB002016490870FCF7BCFF26E00021D9
:104510000846FCF7C7FF1248007838B90020FCF7BE
:10452000C9FA4FF4FA70FCF76BFD14E00C48007800
:10453000012806D10020FCF7BDFA6420FCF760FDDD
:1045400009E007480078022805D10020FCF7B2FAFC
:104550003220FCF755FD0020FCF794FFD7E7000060
:10456000C800002470B504460D4616482060E56179
:104570000021A1604FF0807161614900216100213B
:10458000A1620721E162E160002121624FF08061B8
:10459000A161002161624FF48000606041026165A9
:1045A0000021E1634FF4E021216300212164616473
:1045B000A1636163A164E16421652046FEF7BEFF4B
:1045C00070BD00000030014000BFFEE7704770473B
:1045D0002DE9F04104460E4600275548006800F0DA
:1045E0000300032802D10120BDE8F081504828389B
:1045F000006820F080604E4928390860FCF73CFFD5
:10460000054606E0FCF738FF401B022801D90320CD
:10461000EAE7474828380068C0F3C0600028F1D1B5
:1046200000BF4348006820F47C30216840EA013034
:104630003F490860A088401EC0F30800A168491ED9
:104640004FF47E4202EA41210843A189491ED2016A
:1046500002EA01410843217C491E120202EA01617B
:10466000084333491031086000BF3148001D00681D
:1046700020F0C000616908432D49091D0860084603
:10468000006820F02000A16908432949091D08603D
:104690000846006820F010000860254814300068C3
:1046A0004FF6F8718843E16940EAC10020491431AE
:1046B00008601F48001D006840F010001C49091DDB
:1046C00008602EB90846006840F40020086012E037
:1046D000012E08D11648001D006840F480101449CE
:1046E000091D086007E01248001D006840F4001032
:1046F0000F49091D08600E482838006840F08060A6
:104700000B4928390860FCF7B7FE054606E0FCF7C0
:10471000B3FE401B022801D9032065E7044828386E
:104720000068C0F3C0600028F1D038465CE70000A4
:10473000284402582DE9F04104460E46002755480A
:10474000006800F00300032802D10120BDE8F081D9
:1047500050482838006820F080504E4928390860B9
:10476000FCF78AFE054606E0FCF786FE401B0228A1
:1047700001D90320EAE7474828380068C0F34070B1
:104780000028F1D100BF4348006820F07C702188E8
:1047900040EA01503F490860A088401EC0F308006D
:1047A000A168491E4FF47E4202EA41210843A189D3
:1047B000491ED20102EA01410843217C491E12022E
:1047C00002EA0161084333491831086000BF3148EB
:1047D000001D006820F44060616908432D49091DEF
:1047E00008600846006820F40070A1690843294960
:1047F000091D08600846006820F48070086025489C
:104800001C3000684FF6F8718843E16940EAC10046
:1048100020491C3108601F48001D006840F480706A
:104820001C49091D08602EB90846006840F4800044
:10483000086012E0012E08D11648001D006840F4FF
:1048400000001449091D086007E01248001D0068B7
:1048500040F080700F49091D08600E482838006834
:1048600040F080500B4928390860FCF705FE0546EA
:1048700006E0FCF701FE401B022801D9032065E792
:10488000044828380068C0F340700028F1D038464A
:104890005CE700002844025810B500241249134870
:1048A000FCF77BFBD8B90020FBF7CCFE10B104204D
:1048B00002F07EF800220EA10E4803F0B9FF18B1F5
:1048C000032002F075F80AE0002406E00B2005F052
:1048D0007DF9094941F82400641C192CF6D307A07E
:1048E00002F01EFE10BD0000CA00002464A30008F0
:1048F0002F000000801B00241C1B00244653206D49
:104900006F756E7420636F6D706C6574650D0A0051
:1049100010B5332217A1194803F0BAFF18490870DF
:104920000846007818B917A002F0FAFD05E014480F
:10493000007810B119A002F0F3FD002405E00F4942
:104940001CA004F02AF9601CC4B20A2CF7DB0B4847
:1049500003F0A8FD0A4908700846007818B91EA09F
:1049600002F0DEFD05E00648007810B120A002F05C
:10497000D7FD10BD6C6F672E74787400B82B0024BF
:10498000CE00002446696C65206C6F672E747874C5
:10499000206F70656E65642E0A00000046696C65C4
:1049A00020776173206E6F74206F70656E6564216F
:1049B0000A00000054686973207465787420697374
:1049C000207772697474656E20696E207468652042
:1049D00066696C652E0A00005468652066696C651E
:1049E00020697320636C6F7365642E0A00000000F9
:1049F0005468652066696C6520776173206E6F74FA
:104A000020636C6F7365642E0A0000000148007813
:104A100070470000E40000241CB500200190FF2036
:104A2000009000BF9DF80400401CC0B2019000231C
:104A300095221946184600F0DFF90446012000F0DF
:104A4000D5F801216846FCF7E5F810B16FF00300D6
:104A50001CBD9DF80400642802D36FF00500F7E741
:104A6000E0B20128DED1052387224FF4D57108205A
:104A700000F0C2F90446012000F0B8F801216846B0
:104A8000FCF7C8F810B16FF00300E1E704F0040090
:104A900004282AD100BF0023FF221946372000F046
:104AA000ABF9012000F0A2F801216846FCF7B2F84A
:104AB00010B16FF00300CBE70023FF221946292035
:104AC00000F09AF90446012000F090F801216846B0
:104AD000FCF7A0F810B16FF00300B9E7E0B20128CD
:104AE000D9D00020404908607CE0E0B2012876D1AE
:104AF00000BF0023FF221946372000F07DF9012076
:104B000000F074F801216846FCF784F810B16FF0EA
:104B100003009DE70023FF224FF08041292000F091
:104B20006BF90446012000F061F801216846FCF7AA
:104B300071F810B16FF003008AE7E0B20128D8D015
:104B400004F0040004282CD100BF0023FF221946E2
:104B5000372000F051F9012000F048F801216846A3
:104B6000FCF758F810B16FF0030071E7E0B20128CC
:104B700002D06FF005006BE70023FF2219462920C1
:104B800000F03AF90446012000F030F801216846AF
:104B9000FCF740F810B16FF0030059E7E0B20128CC
:104BA000D3D00323FF2200213A2000F025F9044648
:104BB000012000F01BF801216846FCF72BF810B12A
:104BC0006FF0030044E7E0B218B16FF005003FE773
:104BD00005E0200AC0F380100349086002E06FF08E
:104BE000020035E7002033E70800002410B5044632
:104BF000012C05D1012281030548FCF725FC05E0C5
:104C000000224FF480410248FCF71EFC10BD00005A
:104C10000010025830B587B00025002400BF2B4893
:104C2000006840F01000294908600846006800F05C
:104C30001000009000BF00BF4FF4804001900120A1
:104C4000029003900220049001A92148FCF7EEFA9B
:104C500000BF1E48006840F008001C490860084674
:104C6000006800F00800009000BF00BF4FF48040D3
:104C7000019001200290002003900220049001A9DD
:104C80001448FCF7D3FA012291031248FCF7DCFB2D
:104C9000FBF7A2FF08B1651E14E0012291030C4846
:104CA000FCF7D2FBFF20069000BF012106A8FBF70E
:104CB000B1FF10B16FF0030503E0601CC4B2092C12
:104CC000F3D900BF284607B030BD0000E0440258C9
:104CD00000100258000C025800200149087070476B
:104CE000E40000247CB541F6FF74FCF75BF8002576
:104CF00003E0FF2000F0C8FD6D1C0A2DF9DB00F079
:104D000071FC40208DF8000000208DF801008DF826
:104D100002008DF803008DF8040095208DF8050041
:104D20000621684600F09CFD00E0641E00F07AFD5C
:104D3000012801D0002CF8D1FCF734F8FF2000F056
:104D4000A3FD0120014908707CBD0000E40000249F
:104D500038B504460825FF20009000BF01222146F7
:104D60006846FBF769FF10B16FF0030038BD681E9D
:104D7000C5B22078FF2801D1002DEFD115B96FF011
:104D80000200F3E70020F1E710B54FF4FA71064A8C
:104D9000118000BF00F046FDFF2803D002490988BA
:104DA0000029F7D110BD0000E000002470B50546D1
:104DB0000E46C8200F49088000BF00F033FD0446AE
:104DC000FF2C03D10B4800880028F6D1FE2C01D01F
:104DD000002070BD00BF28466D1C00F03BFD301E5A
:104DE000A6F10106F7D100F01DFD00F01BFD01202A
:104DF000EFE70000DE0000242DE9F04186B0074611
:104E00000C4690461E464FF6FF7547F040008DF861
:104E10001000200E8DF81100200C8DF81200200AD1
:104E20008DF81300E0B28DF8140048F001008DF801
:104E300015000020FFF7DAFE062202A904A8FBF7FE
:104E4000FBFE18B1284606B0BDE8F081FF200190B6
:104E5000062E6ED2DFE806F0030D435A8E5B6846DD
:104E6000FFF776FF10B14FF6FF70ECE79DF80050AA
:104E700081E06846FFF76CFF10B14FF6FF70E2E784
:104E80009DF800500122694601A8FBF7D5FE10B13C
:104E90004FF6FF70D7E79DF8000005430120FFF7AC
:104EA000A5FE012000F04EFC0020FFF79FFE01222E
:104EB000694601A8FBF7C0FE10B14FF6FF70C2E7CC
:104EC00008E00122694601A8FBF7B6FE10B14FF6D3
:104ED000FF70B8E79DF80000FF28F2D14BE068466C
:104EE000FFF736FF10B14FF6FF70ACE79DF80050AA
:104EF0000122694601A8FBF79FFE10B14FF6FF7033
:104F0000A1E79DF8000045EA002534E000BF6846AF
:104F1000FFF71EFF10B14FF6FF7094E79DF80050A9
:104F20000122694601A8FBF787FE18B14FF6FF7012
:104F300089E71FE09DF8000045EA00250122694647
:104F400001A8FBF779FE10B14FF6FF707BE7012255
:104F5000694601A8FBF770FE10B14FF6FF7072E7CB
:104F60000122694601A8FBF767FE10B14FF6FF70FA
:104F700069E700E000BF00BF284664E72DE9F04183
:104F800005460C46FFF700FFFF2802D0FF20BDE8D2
:104F9000F081284600F078FC200E00F075FCC4F388
:104FA000074000F071FCC4F3072000F06DFCE0B294
:104FB00000F06AFC402D01D1952604E0482D01D176
:104FC000872600E00126304600F05EFC4C2D01D122
:104FD00000F028FC4FF00A0800BF00F023FC074651
:104FE00007F0800028B1A8F10100C0B2B0F10008BC
:104FF000F3D13846CBE72DE9F04107460D460026B0
:10500000FFF7C2FEFF2802D00020BDE8F08128464D
:1050100000F03AFCFD2D1BD04FF40071384600F033
:105020001FFC00F0FFFB00F0FDFB09E000F0FAFBC5
:10503000044604F01F00052800D103E0701CC6B22E
:10504000402EF3DD00BF00BF00F0ECFB0028FBD0DA
:1050500004F01F00052801D10120D6E70020D4E785
:10506000F8B506460EB10120F8BD5448007800F0AE
:10507000020010B151480078F6E7FFF733FE00F068
:10508000B1FA002500214020FFF778FF01284CD11C
:105090004FF47A704A4908804FF4D5714820FFF7E1
:1050A0006DFF012842D1002405E000F0BBFB0DF8A4
:1050B0000400601CC4B2042CF7DB9DF80200012838
:1050C00068D19DF80300AA2864D100BF0021772091
:1050D000FFF754FF012806DC4FF080416920FFF7FD
:1050E0004DFF00B903E0364800880028EED100BF2C
:1050F0003348008800284DD000217A20FFF73EFF7A
:10510000002847D1002405E000F08CFB0DF80400D6
:10511000601CC4B2042CF7DB9DF8000000F04000D6
:1051200008B10C2000E00420054633E00021772080
:10513000FFF724FF012807DC00216920FFF71EFF8D
:10514000012801DC022000E00120054600BF022DFD
:105150000BD100217720FFF711FF01280BDC002184
:105160006920FFF70BFF30B909E000214120FFF76C
:1051700005FF00B903E0124800880028E7D100BF0E
:105180000F48008828B14FF400715020FFF7F6FE59
:1051900000B100250B480570FBF704FE00F042FB50
:1051A00035B10648007820F001000449087001E09C
:1051B000FFF792FD0148007856E70000E200002466
:1051C000DE000024E30000242DE9FF4781468846E5
:1051D00014462646B9F1000F03D0042004B0BDE800
:1051E000F0874FF0010AB8F1050F1AD1307820B1DD
:1051F000012807D0022810D109E0FFF76DFD4FF01C
:10520000000A0DE0FFF76EFD4FF0000A08E0FFF71F
:10521000FDFB70704FF0000A02E04FF0040A00BF7F
:105220009FE05148007800F0010008B10320D5E765
:1052300000F0D8F9B8F10B0F5ED009DCB8F1000F1F
:1052400053D0B8F1010F0AD0B8F1020F75D146E082
:10525000B8F10C0F5DD0B8F10D0F7AD166E00021E6
:105260004920FFF78BFEC8BB10216846FFF79EFD63
:10527000A0B39DF800000121B1EBA01F0AD19DF859
:1052800009009DF8081000EB0120401C87B2B8020D
:10529000206021E09DF8050000F00F009DF80A1045
:1052A00000EBD1109DF8091001F0030100EB410063
:1052B000851C9DF8080080119DF8071000EB810007
:1052C0009DF8061001F0030100EB8120471CA5F1B9
:1052D000090007FA00F020604FF0000A3CE04FF4AC
:1052E000007020804FF0000A36E0FFF74DFDFF28E8
:1052F00001D14FF0000A2FE000214920FFF73EFEC8
:1053000030B910213046FFF751FD08B14FF0000AC7
:1053100022E000214A20FFF731FE30B9102130464B
:10532000FFF744FD08B14FF0000A15E000217A2094
:10533000FFF724FE60B9002506E00AE000F072FAEB
:1053400006F8010B681CC5B2042DF7DB4FF0000A0C
:1053500000BF4FF0040A00BF00BFFBF723FD00F0C1
:1053600061FA50463AE70000E20000242DE9F041DE
:1053700007460D4616461C4607B914B90420BDE879
:10538000F0811E48007800F0010008B10320F6E724
:105390001B48007800F0040000B9760200F022F902
:1053A000012C0BD131465120FFF7E8FDE8B961022D
:1053B0002846FFF7FBFCC0B1002416E0314652201E
:1053C000FFF7DCFD88B900BF4FF400712846FFF7F6
:1053D000EDFC00B904E005F50075601E041EF3D174
:1053E00000BF00214C20FFF7C9FDFBF7DBFC00F0FC
:1053F00019FA0CB10120C2E70020C0E7E200002446
:10540000E3000024014609B10120704701480078FB
:10541000FBE70000E20000242DE9F04107460D46BD
:1054200016461C4607B914B90420BDE8F081294886
:10543000007800F0010008B10320F6E72548007865
:1054400000F0040008B10220EFE72348007800F0E4
:10545000040000B9760200F0C5F8012C0BD13146EA
:105460005820FFF78BFD58BBFE212846FFF7C3FDF0
:1054700030B3002424E01848007800F0020038B16E
:1054800000217720FFF77AFD21465720FFF776FDB0
:1054900031465920FFF772FD90B900BFFC21284624
:1054A000FFF7A9FD00B904E005F50075601E041EB4
:1054B000F4D100BFFD210020FFF79DFD00B90124BC
:1054C000FBF770FC00F0AEF90CB10120ADE7002055
:1054D000ABE70000E2000024E300002410B504461E
:1054E0002046FFF7BDFD024908700846007810BD50
:1054F000DC0000242DE9F04104460D4616463246F4
:1055000029462046FFF760FE07463846BDE8F08191
:105510002DE9F04104460D4616461F463B463246ED
:1055200029462046FFF722FF0020BDE8F081000059
:1055300010B504462046FFF765FF0249087008468B
:10554000007810BDDC0000242DE9F04104460D4632
:1055500016461F463B46324629462046FFF75CFF6B
:105560000020BDE8F08110B504462046FBF748FD59
:1055700010BD70B5044604F2E7304FF47A71B0FB09
:10558000F1F52846FBF73CFD70BD10B5FEF792FC27
:1055900010BD2DE9F0470746884614461D46DDF844
:1055A0002090022241463846FEF70AFD064646B9DB
:1055B0004846FFF7DEFF2A4621463846FEF7E6FC5E
:1055C00006463046BDE8F087F8B506460F46144655
:1055D0001D4623460222394630460095FEF71EFD41
:1055E000F8BD000010B500224FF480410348FBF7DE
:1055F0002BFF0120FBF704FD10BD00000010025836
:10560000026851690268926942F0080203689A616F
:105610000268926942F0100203689A610268126897
:1056200022F0010203681A600268126940F26F33C7
:105630009A4303681A610268926822F44042036840
:105640009A6090F88120042A0ED001F020025AB10D
:10565000D0F8842042F08002C0F884200268926969
:1056600042F0200203689A6190F88120032A21D039
:1056700001F040025AB1D0F8842042F00402C0F890
:1056800084200268926942F0400203689A61826A4B
:10569000B2F5800F0ED101F080025AB1D0F884200B
:1056A00042F00202C0F884200268926942F080024F
:1056B00003689A6101F400725AB1D0F8842042F074
:1056C0000102C0F884200268926942F40072036803
:1056D0009A6101F480725AB1D0F8842042F0080235
:1056E000C0F884200268926942F4807203689A616B
:1056F0000022A0F86220A0F86A20704710B5014689
:105700000124C86B04EB5013C868421CD01DC208AA
:1057100002FB03F010BD000030B502460023144622
:10572000002008E0064D55F823005D1C2B46072D90
:1057300000D902E064088C42F4D800BF30BD0000FC
:1057400078A3000870B50446FBF7DCF8054600BFF7
:10575000FBF7D8F8401BA042FADB70BD10B586B04D
:10576000044600BF2C48006840F480502A49086075
:105770000846006800F48050009000BF00BF00BFE2
:1057800025481038006840F00100234910390860AE
:105790000846006800F00100009000BF00BF00BF95
:1057A0000846006840F0020008600846006800F003
:1057B0000200009000BF00BF00BF0846006840F034
:1057C000010008600846006800F00100009000BF7A
:1057D00000BF2020019002200290012003900320AE
:1057E00004900520059001A90C48FBF71FFD20201F
:1057F0000190052005900220039001A90848FBF7BD
:1058000015FD402001900520059001A90348FBF7F4
:105810000DFD06B010BD0000F04402580000025813
:10582000000402580EB5FF20029000BF084800682F
:10583000406900F002000228F8D16420012301AA87
:1058400002A900900248FEF70DF99DF804000EBD74
:105850004C3C002410B50446FFF7E4FF207010BD57
:1058600070B504460D4600BF06480068406900F068
:1058700002000228F8D164232A4621460148FDF798
:1058800096FF70BD4C3C002401B500BF064800687F
:10589000406900F002000228F8D164230122694621
:1058A0000148FDF784FF08BD4C3C00242DE9F04180
:1058B00006460C4617469846069D0BE0FBF7DCFDB6
:1058C000A0EB0800A84201D3681C00B915B9032059
:1058D000BDE8F081306840692040A04201D101203C
:1058E00000E00020B842E9D00020F1E701460020A6
:1058F000704738B505460020009000236A46132102
:1059000005F1200004F035FC04460A21284600F089
:105910001FFA00236A46282105F1200004F029FC23
:1059200004440A21284600F013FA00236A4636216F
:1059300005F1200004F01DFC0444C0200090012269
:10594000694605F1200004F00AFC04440CB14FF054
:10595000FF34204638BD38B50546002000900023AE
:105960006A46132105F1200004F003FC04460A21D5
:10597000284600F0EDF900236A46292105F12000B0
:1059800004F0F7FB04440A21284600F0E1F9002363
:105990006A46362105F1200004F0EBFB0444C020E8
:1059A00000900122694605F1200004F0D8FB044470
:1059B0000CB14FF0FF34204638BD00002DE9FF4FF9
:1059C00087B0054617461C46002006908346A07AFD
:1059D000E17A00EB0120217B00EB0140617B00EBD1
:1059E0000168A07CE17C00EB0120217D00EB0140FF
:1059F000617D00EB01600590A07DE17D00EB012061
:105A0000217E00EB0140617E00EB016AA078E17825
:105A100000EB0120217900EB0140617900EB016985
:105A2000A9EB080904EB080635484068C01BA0EB49
:105A30000A000490CDF800A02846DDE90423089967
:105A400000F005FD18B14FF0FF30069054E02C48EF
:105A500080682C4911F830000290012302AA3621F7
:105A600005F1200004F085FB18B14FF0FF300690DF
:105A700042E02846049A089900F0A2FC18B14FF0C1
:105A8000FF30069038E000BF70788DF80C00307859
:105A90008DF80D00022203A905F1200004F05FFB40
:105AA00018B14FF0FF30069004E00BF1020BB61C6A
:105AB000CB45E9D300BF12488068124901EBC00012
:105AC00000790290012302AA362105F1200004F09A
:105AD00050FB18B14FF0FF3006900DE008484068C9
